:1000000012C0189518951895189518951895189563
:100010001895189518951895189518951895189578
:100020001895189518958FE58DBFC8E3E0E24E2E20
:1000300084E08EBFD4E0F4E05F2EA89584B7082E4C
:10004000877F84BF88E1992781BD91BDEEEFF3E002
:10005000A0E6B0E088278D933197E9F79CD066241D
:1000600080E084BB8FEF81BB70E078BB70E072BB37
:1000700070E075BB7CD08FE711E088D0E2E6F3E05A
:1000800070D0A2E6B0E083B38C938091620080933D
:10009000600081E080936100C0D081E080936100C6
:1000A000009161000F3010F009F023C0A2E6B0E02B
:1000B00083B38C938CE1B7D043B3009160000417F5
:1000C00009F410C0A0E6B0E083B38C938FEB11E08D
:1000D0005DD0A8E0B4E0E0E6F0E0FDD03AD0E0E7A3
:1000E000F3E03FD0A1E6B0E08C918F5F8C9308F4F1
:1000F000D7CF8FE0809361004091610001E0041749
:1001000010F009F023C0A2E6B0E083B38C9388E13D
:100110008AD043B300916000041709F410C0A0E630
:10012000B0E083B38C938FEB11E030D0A8E0B4E063
:10013000E0E6F0E0D0D00DD0E0E7F3E012D080911F
:10014000610081508093610008F0D6CFA6CFF8946B
:10015000FFCFA8E0B4E08D91882311F05ED0FBCFF3
:1001600008959BD0802D11F058D0FBCF089581E0E9
:100170005AD00ED080E857C08FE7213039F08FEB8E
:10018000223021F08FE8233009F08FEC810F4BC033
:1001900083E0992772C08AEF90E06FD08F9A8E9A91
:1001A0008D9A8C9A8B9A8A9A929885E090E065D085
:1001B000939897989698959A949A939AEF93FF9319
:1001C000E4ECF0E050D0FF91EF91939853D0939AE4
:1001D000EF93FF93E4ECF0E046D0FF91EF9193981A
:1001E00049D0939AEF93FF93E4ECF0E03CD0FF9179
:1001F000EF9193983FD09498939AEF93FF93E4EC08
:10020000F0E031D0FF91EF91939834D088E20BD099
:100210008EE009D086E007D00895929A829505D0A5
:1002200004D028D008959298F9CF859510F4949A27
:1002300001C09498859510F4959A01C0959885957C
:1002400010F4969A01C09698859510F4979A01C07B
:100250009798939AEF93FF93E4ECF0E004D0FF912A
:10026000EF91939808950895689462F80895E8943A
:1002700062F8089581E090E000C0EF93FF93EE27CD
:10028000E82BE92B11F0E0EDF7E0FF91EF910895F5
:1002900001911191219130810895C89531960020E6
:1002A0000895000F111F221F331F08950095109508
:1002B000209530950F5F1F4F2F4F3F4F08950191AD
:1002C00010810BC0E5DF0BC00191108117FF05C045
:1002D0003FEF2FEF04C0008111272227332737FF7C
:1002E00003C0E4DF8DE28D93CF92DF92EF92AA24D8
:1002F000BB24CC24DD24EE2440E2EAE0FF2755E0D5
:1003000093E38081890F87FD9F7083FD907F891B18
:1003100081935A95A9F7C5DFAA1CBB1CCC1CDD1C18
:10032000EE1C4A9551F7E894EFE0FF2782910CD03C
:10033000EB30E0F71EF068948A2D0AD088278D9361
:10034000EF90DF90CF900895982F829501D0892F5C
:100350008F70805D26F0803309F4089568948D9342
:100360000895426572746F6C614C696E646F000031
:0203700020006B
:00000001FF
