:100000000C94340018950000189500001895000015
:10001000189500001895000018950000189500002C
:10002000189500001895000018950000189500001C
:10003000189500001895000018950000189500000C
:1000400018950000189500001895000018950000FC
:1000500018950000189500001895000018950000EC
:1000600018950000189500008FEF8DBFC8EDE0ECEB
:100070004E2E88E08EBFD8E0F8E05F2EA89584B7BA
:10008000082E877F84BF88E1992780936000909332
:100090006000EEEFF7E0A0E0B1E088278D933197A4
:1000A000E9F70E94DA00662480E087B98FEF8AB909
:1000B00070E075B970E07BB970E078B98FE00E94AC
:1000C00028010E94C4008FE711E00E94D300E0E9FC
:1000D000F3E00E94BD00A2E0B1E086B18C93809174
:1000E00002018093000181E080930101A2E0B1E070
:1000F00086B18C9346B100910001041711F40C9461
:100100009500A0E0B1E086B18C938FEB11E00E94E6
:10011000D300A8EAB8E0E0E0F1E00E9482010E948A
:10012000B500EEE9F3E00E94BD008CE10E942801D9
:100130008CE10E9428018CE10E9428018CE10E9440
:100140002801E1E0F0E00E94D60088E10E94280149
:1001500088E10E94280188E10E94280188E10E942C
:1001600028010C947600F894FFCFA8EAB8E08D91AE
:10017000882311F067D0FBCF08950E946301802D82
:1001800011F060D0FACF089581E062D010D080E8FD
:100190005FC08FE7213039F08FEB223021F08FE8FC
:1001A000233009F08FEC810F0C942801089583E02F
:1001B000992779C08AEF90E00E945301579A569A86
:1001C000559A549A539A529A5A9885E090E00E9410
:1001D00053015B985F985E985D9A5C9A5B9AEF9387
:1001E000FF93E4ECF0E00E944901FF91EF915B98EE
:1001F00057D05B9AEF93FF93E4ECF0E00E94490143
:10020000FF91EF915B984CD05B9AEF93FF93E4ECF6
:10021000F0E00E944901FF91EF915B9841D05C981A
:100220005B9AEF93FF93E4ECF0E00E944901FF91A9
:10023000EF915B9835D088E20BD08EE009D086E054
:1002400007D008955A9A829505D004D029D00895F0
:100250005A98F9CF859510F45C9A01C05C98859501
:1002600010F45D9A01C05D98859510F45E9A01C006
:100270005E98859510F45F9A01C05F985B9AEF9342
:10028000FF93E4ECF0E00E944901FF91EF915B984D
:1002900008950895689462F80895E89462F80895BE
:1002A00081E090E000C0EF93FF93EE27E82BE92B6D
:1002B00011F0E0EDF7E0FF91EF91089501911191B8
:1002C000219130810895C895319600200895000F3E
:1002D000111F221F331F089500951095209530950A
:1002E0000F5F1F4F2F4F3F4F0895019110810CC09A
:1002F0000E945E010BC00191108117FF05C03FEF06
:100300002FEF04C0008111272227332737FF03C0B6
:10031000E3DF8DE28D93CF92DF92EF92AA24BB248C
:10032000CC24DD24EE2440E2EAE0FF2755E093E30D
:100330008081890F87FD9F7083FD907F891B81934A
:100340005A95A9F7C4DFAA1CBB1CCC1CDD1CEE1CF3
:100350004A9551F7E894EFE0FF2782910CD0EB30FB
:10036000E0F71EF068948A2D0AD088278D93EF90CD
:10037000DF90CF900895982F829501D0892F8F70AC
:10038000805D26F0803309F4089568948D93089574
:10039000426572746F6C614C696E646F000020007E
:00000001FF
