:100000000C94340018950000189500001895000015
:10001000189500001895000018950000189500002C
:10002000189500001895000018950000189500001C
:10003000189500001895000018950000189500000C
:1000400018950000189500001895000018950000FC
:1000500018950000189500001895000018950000EC
:1000600018950000189500008FEF8DBFC8EDE0ECEB
:100070004E2E88E08EBFD8E0F8E05F2EA89584B7BA
:10008000082E877F84BF88E1992780936000909332
:100090006000EEEFF7E0A0E0B1E088278D933197A4
:1000A000E9F70E94830066248FEF8AB970E07BB97C
:1000B0008FE00E94D1000E946E008FE711E00E9445
:1000C0007D00E2E2F2E00E946700F894FFCF0E9418
:1000D0000D01802D11F05FD0FACF089581E061D03D
:1000E0000FD080E85EC08FE7213039F08FEB2230EF
:1000F00021F08FE8233009F08FEC810F0C94D100B0
:1001000083E099277BC08AEF90E00E94FE00579A17
:10011000569A559A549A539A529A5A9885E090E072
:100120000E94FE005B985F985E985D9A5C9A5B9A6D
:10013000EF93FF93E4ECF0E00E94F200FF91EF9167
:100140005B9859D05B9AEF93FF93E4ECF0E00E9448
:10015000F200FF91EF915B984ED05B9AEF93FF9383
:10016000E4ECF0E00E94F200FF91EF915B9843D045
:100170005C985B9AEF93FF93E4ECF0E00E94F2004E
:10018000FF91EF915B9837D088E20BD08EE009D0D9
:1001900086E007D008955A9A829505D004D02BD0D6
:1001A00008955A98F9CF859510F45C9A01C05C982F
:1001B000859510F45D9A01C05D98859510F45E9A5E
:1001C00001C05E98859510F45F9A01C05F985B9AB4
:1001D000EF93FF93E4ECF0E00E94F200FF91EF91C7
:1001E0005B9808953197F1F70895689462F808953F
:1001F000E89462F8089581E090E000C0EF93FF93E7
:10020000EE27E82BE92B31F0E0EDF7E03197F1F73D
:100210000197D1F7FF91EF910895C895319600208D
:100220000895426572746F6C614C696E646F000072
:00000001FF
