:1000000012C0189518951895189518951895189563
:100010001895189518951895189518951895189578
:100020001895189518958FE58DBFC8E3E0E24E2E20
:1000300084E08EBFD4E0F4E05F2EA89584B7082E4C
:10004000877F84BF88E1992781BD91BDEEEFF3E002
:10005000A0E6B0E088278D933197E9F727D0662492
:100060001DD0EEEAF1E014D063D08CE167D08CE1D2
:1000700065D08CE163D08CE161D088E15FD088E10C
:100080005DD088E15BD088E159D0EFCFF894FFCF05
:100090008AD0802D11F04CD0FBCF089581E04ED056
:1000A00002D080E84BC083E0992772C08AEF90E0CD
:1000B0006FD0BF9ABE9ABD9ABC9ABB9ABA9AC298A0
:1000C00085E090E065D0C398C798C698C59AC49A51
:1000D000C39AEF93FF93E4ECF0E050D0FF91EF91DF
:1000E000C39853D0C39AEF93FF93E4ECF0E046D06B
:1000F000FF91EF91C39849D0C39AEF93FF93E4EC3B
:10010000F0E03CD0FF91EF91C3983FD0C498C39AE0
:10011000EF93FF93E4ECF0E031D0FF91EF91C398BF
:1001200034D088E20BD08EE009D086E007D0089565
:10013000C29A829505D004D028D00895C298F9CFEC
:10014000859510F4C49A01C0C498859510F4C59A99
:1001500001C0C598859510F4C69A01C0C6988595CA
:1001600010F4C79A01C0C798C39AEF93FF93E4ECC9
:10017000F0E004D0FF91EF91C3980895089568943A
:1001800062F80895E89462F8089581E090E000C074
:10019000EF93FF93EE27E82BE92B11F0E0EDF7E06A
:1001A000FF91EF910895C89531960020089542651A
:0C01B00072746F6C614C696E646F00002B
:00000001FF
