:100000000C94340018950000189500001895000015
:10001000189500001895000018950000189500002C
:10002000189500001895000018950000189500001C
:10003000189500001895000018950000189500000C
:1000400018950000189500001895000018950000FC
:1000500018950000189500001895000018950000EC
:1000600018950000189500008FEF8DBFC8EDE0ECEB
:100070004E2E88E08EBFD8E0F8E05F2EA89584B7BA
:10008000082E877F84BF88E1992780936000909332
:100090006000EEEFF7E0A0E0B1E088278D933197A4
:1000A000E9F70E94C60066248FEF8AB980E087B91D
:1000B00086E880937A0080E480937C0070E07BB9CE
:1000C00070E078B98CE00E94140170917A00706839
:1000D00070937A000E94AB008FE711E00E94BA0093
:1000E000E2EAF3E00E94A400E3E0F0E00E94BD0039
:1000F00000917C00007F00937C000E945501A0E0ED
:10010000B1E08C930E94AB008FE711E00E94BA002F
:10011000E4EBF3E00E94A400A8EAB8E0E0E0F1E03C
:100120000E948B010E949C00E1E0F0E00E94BD0073
:100130000C947800F894FFCFA8EAB8E08D9188235A
:1001400011F06CD0FBCF08950E946C01802D11F04E
:1001500065D0FACF089581E067D015D080E864C0FB
:100160008FE7213039F08FEB223021F08FE82330F8
:1001700009F08FEC810F0C94140188EE93E081D08C
:100180003197D9F7089583E099277BC08AEF90E0F3
:100190000E944101579A569A559A549A539A529AE4
:1001A0005A9885E090E00E9441015B985F985E98C4
:1001B0005D9A5C9A5B9AEF93FF93E4ECF0E00E9407
:1001C0003501FF91EF915B9859D05B9AEF93FF93C4
:1001D000E4ECF0E00E943501FF91EF915B984ED086
:1001E0005B9AEF93FF93E4ECF0E00E943501FF91FE
:1001F000EF915B9843D05C985B9AEF93FF93E4ECAC
:10020000F0E00E943501FF91EF915B9837D088E2D2
:100210000BD08EE009D086E007D008955A9A8295D7
:1002200005D004D02BD008955A98F9CF859510F4B5
:100230005C9A01C05C98859510F45D9A01C05D9848
:10024000859510F45E9A01C05E98859510F45F9ACA
:1002500001C05F985B9AEF93FF93E4ECF0E00E949B
:100260003501FF91EF915B9808953197F1F708956B
:10027000689462F80895E89462F8089581E090E047
:1002800000C0EF93FF93EE27E82BE92B31F0E0ED70
:10029000F7E03197F1F70197D1F7FF91EF910895CA
:1002A0000191119121913081089570917A007064CB
:1002B00070937A0000907A0006FCFCCF70917A006F
:1002C000706470937A0000907A0006FCFCCF8091F5
:1002D0007800909179000895C8953196002008958E
:1002E000000F111F221F331F0895009510952095B0
:1002F00030950F5F1F4F2F4F3F4F08950191108191
:100300000CC00E9450010BC00191108117FF05C065
:100310003FEF2FEF04C0008111272227332737FF3B
:1003200003C0E3DF8DE28D93CF92DF92EF92AA2498
:10033000BB24CC24DD24EE2440E2EAE0FF2755E094
:1003400093E38081890F87FD9F7083FD907F891BD8
:1003500081935A95A9F7C4DFAA1CBB1CCC1CDD1CD9
:10036000EE1C4A9551F7E894EFE0FF2782910CD0FC
:10037000EB30E0F71EF068948A2D0AD088278D9321
:10038000EF90DF90CF900895982F829501D0892F1C
:100390008F70805D26F0803309F4089568948D9302
:1003A0000895496E696369616C697A616E646F2E44
:0C03B0002E2E000054656D703A200000F5
:00000001FF
