:100000000C94340018950000189500001895000015
:10001000189500001895000018950000189500002C
:10002000189500001895000018950000189500001C
:10003000189500001895000018950000189500000C
:1000400018950000189500001895000018950000FC
:1000500018950000189500001895000018950000EC
:1000600018950000189500008FEF8DBFC8EDE0ECEB
:100070004E2E88E08EBFD8E0F8E05F2EA89584B7BA
:10008000082E877F84BF88E1992780936000909332
:100090006000EEEFF7E0A0E0B1E088278D933197A4
:1000A000E9F70E949E0066248FEF87B98FEF8AB927
:1000B00070E078B970E07BB980E0809300018FE058
:1000C0000E94EC000E9483008FE711E00E949200E2
:1000D000E8E5F2E00E947C004598449AE3E0F0E015
:1000E0000E949500459A4498E3E0F0E00E94950054
:1000F0000C946C00F894FFCF0E942801802D11F021
:1001000065D0FACF089581E067D015D080E864C04B
:100110008FE7213039F08FEB223021F08FE8233048
:1001200009F08FEC810F0C94EC0088EE93E081D005
:100130003197D9F7089583E099277BC08AEF90E043
:100140000E941901579A569A559A549A539A529A5C
:100150005A9885E090E00E9419015B985F985E983C
:100160005D9A5C9A5B9AEF93FF93E4ECF0E00E9457
:100170000D01FF91EF915B9859D05B9AEF93FF933C
:10018000E4ECF0E00E940D01FF91EF915B984ED0FE
:100190005B9AEF93FF93E4ECF0E00E940D01FF9176
:1001A000EF915B9843D05C985B9AEF93FF93E4ECFC
:1001B000F0E00E940D01FF91EF915B9837D088E24B
:1001C0000BD08EE009D086E007D008955A9A829528
:1001D00005D004D02BD008955A98F9CF859510F406
:1001E0005C9A01C05C98859510F45D9A01C05D9899
:1001F000859510F45E9A01C05E98859510F45F9A1B
:1002000001C05F985B9AEF93FF93E4ECF0E00E94EB
:100210000D01FF91EF915B9808953197F1F70895E3
:10022000689462F80895E89462F8089581E090E097
:1002300000C0EF93FF93EE27E82BE92B31F0E0EDC0
:10024000F7E03197F1F70197D1F7FF91EF9108951A
:10025000C895319600200895426572746F6C614CA8
:06026000696E646F0000EE
:00000001FF
